:020000040800F2
:1000000000280020050E0008590C00085F0C0008AD
:10001000650C00086B0C0008710C00080000000063
:10002000000000000000000000000000770C000845
:10003000830C0008000000008F0C00089B0C0008D7
:100040004D0E00084D0E00084D0E00084D0E000824
:100050004D0E00084D0E00084D0E00084D0E000814
:100060004D0E00084D0E00084D0E00084D0E000804
:100070004D0E00084D0E00084D0E00084D0E0008F4
:100080004D0E00084D0E00084D0E00084D0E0008E4
:100090004D0E00084D0E00084D0E00084D0E0008D4
:1000A0004D0E00084D0E00084D0E00084D0E0008C4
:1000B000A90C00084D0E0008000000004D0E0008BD
:1000C0004D0E000800000000000000004D0E00086A
:1000D000000000004D0E00084D0E0008000000005A
:1000E0004D0E00084D0E00084D0E000800000000E7
:1000F0000000000000000000000000000000000000
:0C01000000000000000000005FF808F1A3
:10010C0010B5054C237833B9044B13B10448AFF345
:10011C0000800123237010BD580000200000000057
:10012C007C24000808B5034B1BB103490348AFF30B
:10013C00008008BD000000005C0000207C2400084A
:10014C0080B400AF064B1B68012B04D1044B00227A
:10015C001A60012300E000231846BD4680BC70479E
:10016C007400002080B400AF064B5B68012B04D1F7
:10017C00044B00225A60012300E000231846BD46C0
:10018C0080BC70477400002080B400AF064B9B68A5
:10019C00012B04D1044B00229A60012300E00023C0
:1001AC001846BD4680BC70477400002080B400AF78
:1001BC00054B5B68312B01DD012300E00023184661
:1001CC00BD4680BC704700BF8000002080B582B067
:1001DC0000AF514B1B68514A1360514B1B684E4A80
:1001EC0013604FF400414F4801F016F903461A46CC
:1001FC004B4B1A60484B5B68484A5360484B5B68F2
:10020C00454A53604FF48041464801F005F90346D6
:10021C001A46434B5A60404B9B68404A9360404B94
:10022C009B683D4A93604FF400513E4801F0F4F84E
:10023C0003461A463A4B9A6000237B6064E0374AC7
:10024C007B6852F8232034497B6851F823309A425A
:10025C0057D1314A7B6852F8232031497B6851F8D9
:10026C0023309A424DD1304A7B6852F823202C49D6
:10027C007B6851F823309A421DD0294A7B6852F88A
:10028C00232029497B6841F82320274A7B6852F8B0
:10029C002330002B35D1254A7B68012142F82310ED
:1002AC00234A7B68C82142F82310224A7B6800212C
:1002BC0042F8231025E01E4A7B6852F823305A1E60
:1002CC001B497B6841F82320194A7B6852F823307C
:1002DC00002B04D1144A7B68012142F823107B685F
:1002EC00012B0ED1104A7B6852F82330002B08D119
:1002FC00104A7B6852F823305A1C0E497B6841F82F
:10030C0023207B6801337B607B68022B97DD00BF69
:10031C0000BF0837BD4680BD0C0000200000002047
:10032C0018000020000C0140240000207400002064
:10033C00300000208000002080B400AF094B1B6807
:10034C00022B0BD1084B1B680133074A1360064B79
:10035C001B68632B02DD044B00221A6000BFBD46F4
:10036C0080BC70473C0000204400002080B400AFEB
:10037C00054B1B68022B03D1044B1B68044A13600A
:10038C0000BFBD4680BC70473C00002044000020EC
:10039C004000002080B500AF2C4B5B78022B24D0A2
:1003AC00022B2BDC002B02D0012B0BD026E0FFF70D
:1003BC00D9FE0346012B23D1244B01225A70FFF79F
:1003CC00BBFF1DE0FFF7CEFE0346002B02D11F4BF7
:1003DC0000225A70FFF7EAFE0346002B12D01B4B8B
:1003EC0002225A70FFF7A8FF0CE0FFF7DFFE03466E
:1003FC00002B09D1154B00225A7005E000BF04E018
:10040C0000BF02E000BF00E000BF104B9B78002B48
:10041C0002D0012B0BD016E0FFF7B6FE0346012BE2
:10042C000ED10A4B01229A70FFF7A0FF08E0FFF7EC
:10043C00ABFE0346002B05D1044B00229A7001E061
:10044C0000BF00E000BF00BF80BD00BF8C000020DB
:10045C0080B582B000AF78607B68092B00F2808198
:10046C0001A252F823F000BF9D040008E504000827
:10047C002D05000875050008BD05000805060008D7
:10048C004D06000895060008DD0600082507000843
:10049C0000220121B54800F0D6FF00220221B3480A
:1004AC0000F0D1FF00220421B04800F0CCFF002264
:1004BC000821AE4800F0C7FF00221021AB4800F025
:1004CC00C2FF00222021A94800F0BDFF01224021DB
:1004DC00A64800F0B8FF44E101220121A34800F036
:1004EC00B2FF00220221A14800F0ADFF002204213E
:1004FC009E4800F0A8FF012208219C4800F0A3FFB1
:10050C0001221021994800F09EFF012220219748DA
:10051C0000F099FF01224021944800F094FF20E163
:10052C0000220121914800F08EFF002202218F4809
:10053C0000F089FF012204218C4800F084FF002286
:10054C0008218A4800F07FFF00221021874800F024
:10055C007AFF01222021854800F075FF00224021FE
:10056C00824800F070FFFCE0002201217F4800F07F
:10057C006AFF002202217D4800F065FF0022042161
:10058C007A4800F060FF00220821784800F05BFFF9
:10059C0001221021754800F056FF012220217348DA
:1005AC0000F051FF00224021704800F04CFFD8E0D1
:1005BC00012201216D4800F046FF002202216B4808
:1005CC0000F041FF00220421684800F03CFF0122AA
:1005DC000821664800F037FF01221021634800F023
:1005EC0032FF00222021614800F02DFF0022402123
:1005FC005E4800F028FFB4E0002201215B4800F0C7
:10060C0022FF01220221594800F01DFF0022042183
:10061C00564800F018FF00220821544800F013FF40
:10062C0001221021514800F00EFF002220214F48DA
:10063C0000F009FF002240214C4800F004FF90E03C
:10064C0000220121494800F0FEFE01220221474808
:10065C0000F0F9FE00220421444800F0F4FE0022D0
:10066C000821424800F0EFFE002210213F4800F024
:10067C00EAFE002220213D4800F0E5FE0022402148
:10068C003A4800F0E0FE6CE000220121374800F00F
:10069C00DAFE00220221354800F0D5FE00220421AA
:1006AC00324800F0D0FE01220821304800F0CBFE89
:1006BC00012210212D4800F0C6FE012220212B48DA
:1006CC0000F0C1FE01224021284800F0BCFE48E0A9
:1006DC0000220121254800F0B6FE00220221234809
:1006EC0000F0B1FE00220421204800F0ACFE0022F4
:1006FC0008211E4800F0A7FE002210211B4800F024
:10070C00A2FE00222021194800F09DFE002240216B
:10071C00164800F098FE24E000220121134800F056
:10072C0092FE00220221114800F08DFE00220421CD
:10073C000E4800F088FE002208210C4800F083FED1
:10074C0001221021094800F07EFE002220210748DA
:10075C0000F079FE00224021044800F074FE00E015
:10076C0000BF00BF0837BD4680BD00BF000C014074
:10077C0080B400AF034B1B68034A136000BFBD4637
:10078C0080BC7047400000204800002080B500AFBE
:10079C00FFF7D6FC0346012B0DD1084B1B68013328
:1007AC00064A1360054B1B68042B04DD034B012226
:1007BC001A60FFF7DDFF00BF80BD00BF3C000020CA
:1007CC0080B400AF084B1B68012B04D0022B05D062
:1007DC0000BF002304E0054B1B6801E0044B1B68C1
:1007EC001846BD4680BC70473C00002048000020E5
:1007FC004400002080B500AF00222021084800F002
:10080C0022FE084B1B68013B064A1360054B1B6814
:10081C00002B02DA034B14221A6000BF80BD00BF0C
:10082C00000801404800002080B500AF114B1B6848
:10083C00012B02D0022B0BD01AE000F0BDFA0346BC
:10084C00002B12D0FFF7D6FF642000F037FA0CE033
:10085C0000F0B2FA0346002B09D02021064800F024
:10086C000AFEC82000F02AFA01E000BF00E000BF39
:10087C0000BF80BD3C0000200008014080B500AFE7
:10088C00384B1B68022B4FD0022B68DC002B02D09C
:10089C00012B22D063E000224FF48051324800F04B
:1008AC00D2FD01224FF480712F4800F0CCFD0022C4
:1008BC004FF400712C4800F0C6FDFFF781FF034692
:1008CC002A4A82FB03129210DB17D31A1846FFF741
:1008DC00BFFD244B01221A6042E000224FF48051EC
:1008EC00214800F0B0FD00224FF480711E4800F04A
:1008FC00AAFD01224FF400711B4800F0A4FDFFF784
:10090C005FFF0146194B83FB01239A10CB17D21AB8
:10091C0013469B0013445B00CA1A1046FFF798FD60
:10092C00104B02221A601BE001224FF480510E483A
:10093C0000F089FD00224FF480710B4800F083FD1C
:10094C0000224FF40071084800F07DFD084B1B6835
:10095C001846FFF77DFD034B00221A6000E000BF34
:10096C0000BF80BD900000200008014067666666ED
:10097C003C00002080B500AF00F064FA00F020F8D5
:10098C0000F0A6F800F058F80C4801F0B9F9012075
:10099C0000F094F9012000F0A5F9FFF7F7FE00F044
:1009AC0015FA0346002B04D0FFF768FF012000F076
:1009BC0099F9FFF739FFFFF7EDFCEEE7B4000020E3
:1009CC0080B590B000AF07F118032822002118461B
:1009DC0001F046FD3B1D00221A605A609A60DA60F5
:1009EC001A610223BB610123BB621023FB6200234B
:1009FC007B6307F11803184600F056FD0346002BE5
:100A0C0001D000F0C7F80F237B600023BB600023EC
:100A1C00FB6000233B6100237B613B1D00211846DA
:100A2C0000F0C2FF0346002B01D000F0B3F800BF6A
:100A3C004037BD4680BD000080B586B000AF07F1E1
:100A4C00080300221A605A609A60DA603B46002262
:100A5C001A605A601D4B4FF080421A601B4B41F6D6
:100A6C003F725A60194B00229A60184B0922DA60C7
:100A7C00164B00221A61154B00229A61134801F0A3
:100A8C00EFF80346002B01D000F084F84FF48053AC
:100A9C00BB6007F1080319460C4801F06DFA0346D8
:100AAC00002B01D000F076F800233B6000237B6024
:100ABC003B461946054801F045FC0346002B01D086
:100ACC0000F068F800BF1837BD4680BDB4000020A8
:100ADC0080B586B000AF07F1080300221A605A6097
:100AEC009A60DA60284B9B69274A43F004039361B0
:100AFC00254B9B6903F004037B607B68224B9B694D
:100B0C00214A43F0080393611F4B9B6903F00803D0
:100B1C003B603B6800224FF49F511C4800F093FC53
:100B2C0000227F211A4800F08EFC4FF49F53BB60CB
:100B3C000123FB6000233B6102237B6107F1080367
:100B4C001946124800F0EEFA7F23BB600123FB60CC
:100B5C0000233B6102237B6107F1080319460C4813
:100B6C0000F0E0FA4FF46043BB600023FB6001230C
:100B7C003B6107F108031946054800F0D3FA00BFA2
:100B8C001837BD4680BD00BF001002400008014070
:100B9C00000C014080B400AF72B600BFFEE700004D
:100BAC0080B485B000AF154B9B69144A43F0010328
:100BBC009361124B9B6903F00103BB60BB680F4B45
:100BCC00DB690E4A43F08053D3610C4BDB6903F0B5
:100BDC0080537B607B680A4B5B68FB60FB6823F08F
:100BEC00E063FB60FB6843F08063FB60044AFB68D6
:100BFC00536000BF1437BD4680BC704700100240E4
:100C0C000000014080B584B000AF78607B681B6841
:100C1C00B3F1804F13D10C4BDB690B4A43F001034A
:100C2C00D361094BDB6903F00103FB60FB68002215
:100C3C0000211C2000F03FFA1C2000F058FA00BFE5
:100C4C001037BD4680BD00BF0010024080B400AF1D
:100C5C00FEE780B400AFFEE780B400AFFEE780B4DF
:100C6C0000AFFEE780B400AFFEE780B400AF00BF7A
:100C7C00BD4680BC704780B400AF00BFBD4680BC91
:100C8C00704780B400AF00BFBD4680BC704780B5D4
:100C9C0000AF00F01DF900BF80BD000080B500AFB3
:100CAC00024801F079F800BF80BD00BFB4000020FD
:100CBC0080B400AF00BFBD4680BC704780B483B029
:100CCC0000AF7860054A7B681360054B00221A6000
:100CDC0000BF0C37BD4680BC704700BF940000209D
:100CEC00A400002080B483B000AF7860054A7B6814
:100CFC001360054B00221A6000BF0C37BD4680BC48
:100D0C00704700BF98000020A800002080B400AFFE
:100D1C00214B1B68002B0BDD1F4B1B68013B1E4A34
:100D2C0013601D4B1B68002B02DC1C4B01221A604C
:100D3C001B4B1B68002B0BDD194B1B68013B184A26
:100D4C001360174B1B68002B02DC164B01221A6038
:100D5C00154B1B68002B0BDD134B1B68013B124A18
:100D6C001360114B1B68002B02DC104B01221A6024
:100D7C000F4B1B68002B0BDD0D4B1B68013B0C4A0A
:100D8C0013600B4B1B68002B02DC0A4B01221A6010
:100D9C0000BFBD4680BC704794000020A40000201A
:100DAC0098000020A80000209C000020AC0000202F
:100DBC00A0000020B000002080B400AF024B1B68E4
:100DCC001846BD4680BC7047A400002080B400AF1C
:100DDC00024B1B681846BD4680BC7047A80000201B
:100DEC0080B582B000AF7860FFF790FFFFF7EEF9A7
:100DFC0000BF0837BD4680BDFFF75AFF0B480C49B2
:100E0C000C4A002302E0D458C4500433C4188C425A
:100E1C00F9D3094A094C002301E013600432A242C1
:100E2C00FBD301F0F9FAFFF7A5FD70470000002095
:100E3C0058000020C02400085800002000010020A9
:100E4C00FEE7000080B500AF084B1B68074A43F073
:100E5C0010031360032000F023F90F2000F008F8B2
:100E6C00FFF79EFE0023184680BD00BF0020024005
:100E7C0080B582B000AF7860124B1A68124B1B78A9
:100E8C0019464FF47A73B3FBF1F3B2FBF3F3184644
:100E9C0000F03BF90346002B01D001230EE07B68E8
:100EAC000F2B0AD8002279684FF0FF3000F003F9BD
:100EBC00064A7B681360002300E0012318460837BC
:100ECC00BD4680BD4C000020540000205000002086
:100EDC0080B400AF054B1B781A46054B1B681344B6
:100EEC00034A136000BFBD4680BC7047540000200D
:100EFC00FC00002080B400AF024B1B681846BD46B6
:100F0C0080BC7047FC00002080B485B000AF7860D6
:100F1C007B6803F00703FB600C4BDB68BB60BA68B3
:100F2C004FF6FF031340BB60FB681A02BB68134308
:100F3C0043F0BF6343F40033BB60044ABB68D36027
:100F4C0000BF1437BD4680BC704700BF00ED00E009
:100F5C0080B400AF044BDB681B0A03F00703184690
:100F6C00BD4680BC704700BF00ED00E080B483B08C
:100F7C0000AF0346FB7197F90730002B0BDBFB79B5
:100F8C0003F01F02064997F907305B09012000FAAC
:100F9C0002F241F8232000BF0C37BD4680BC7047DD
:100FAC0000E100E080B483B000AF03463960FB7110
:100FBC0097F90730002B0ADB3B68DAB20C4997F93A
:100FCC0007301201D2B20B4483F800230AE03B68CD
:100FDC00DAB20849FB7903F00F03043B1201D2B2D9
:100FEC000B441A7600BF0C37BD4680BC704700BF5F
:100FFC0000E100E000ED00E080B489B000AFF860E3
:10100C00B9607A60FB6803F00703FB61FB69C3F10D
:10101C000703042B28BF0423BB61FB690433062B95
:10102C0002D9FB69033B00E000237B614FF0FF32E8
:10103C00BB6902FA03F3DA43BB681A407B699A4036
:10104C004FF0FF317B6901FA03F3D9437B680B4006
:10105C00134318462437BD4680BC704780B582B018
:10106C0000AF78607B68013BB3F1807F01D3012333
:10107C000FE00A4A7B68013B53600F214FF0FF30B1
:10108C00FFF790FF054B00229A60044B07221A6071
:10109C00002318460837BD4680BD00BF10E000E0B5
:1010AC0080B582B000AF78607868FFF72DFF00BF85
:1010BC000837BD4680BD80B586B000AF0346B96029
:1010CC007A60FB7300237B61FFF742FF78617A68DB
:1010DC00B9687869FFF790FF024697F90F3011460F
:1010EC001846FFF75FFF00BF1837BD4680BD80B5BF
:1010FC0082B000AF0346FB7197F907301846FFF733
:10110C0035FF00BF0837BD4680BD80B582B000AF4B
:10111C0078607868FFF7A2FF034618460837BD468B
:10112C0080BD000080B48BB000AF786039600023C4
:10113C007B6200233B6248E101227B6A02FA03F3E3
:10114C00FB613B681B68FA691340BB61BA69FB69B8
:10115C009A4240F037813B685B68A34A93425ED069
:10116C00A14A934275D8A14A934258D09F4A9342C0
:10117C006FD89F4A934252D09D4A934269D89D4A58
:10118C0093424CD09B4A934263D89B4A934246D09D
:10119C00994A93425DD8122B2AD8122B59D801A206
:1011AC0052F823F02B120008051200081712000841
:1011BC00591200085F1200085F1200085F12000845
:1011CC005F1200085F1200085F1200085F1200082F
:1011DC005F1200085F1200085F1200085F1200081F
:1011EC005F1200085F1200080D120008211200089F
:1011FC00824A934213D02CE03B68DB683B6229E0C7
:10120C003B68DB6804333B6224E03B68DB680833F3
:10121C003B621FE03B68DB680C333B621AE03B68C7
:10122C009B68002B02D104233B6213E03B689B6854
:10123C00012B05D108233B627B68FA691A6109E02E
:10124C0008233B627B68FA695A6103E000233B6226
:10125C0000E000BFBB69FF2B01D87B6801E07B6815
:10126C0004337B61BB69FF2B02D87B6A9B0002E0D5
:10127C007B6A083B9B003B617B691A680F213B69C9
:10128C0001FA03F3DB431A40396A3B6901FA03F3B1
:10129C001A437B691A603B685B6803F08053002B30
:1012AC0000F09080564B9B69554A43F001039361C3
:1012BC00534B9B6903F00103BB60BB68514A7B6ACB
:1012CC009B08023352F82330FB607B6A03F0030364
:1012DC009B000F2202FA03F3DB43FA681340FB6016
:1012EC007B68494A93420DD07B68484A934207D0A9
:1012FC007B68474A934201D1022304E0032302E0B6
:10130C00012300E000237A6A02F00302920093406A
:10131C00FA681343FB603B497B6A9B080233FA680B
:10132C0041F823203B685B6803F48013002B06D044
:10133C00384B9A683749BB6913438B6006E0354BD1
:10134C009A68BB69DB43334913408B603B685B682D
:10135C0003F40013002B06D02E4BDA682D49BB6921
:10136C001343CB6006E02B4BDA68BB69DB4329499E
:10137C001340CB603B685B6803F40033002B06D052
:10138C00244B5A682349BB6913434B6006E0214B3D
:10139C005A68BB69DB431F4913404B603B685B6871
:1013AC0003F48033002B06D01A4B1A681949BB6919
:1013BC0013430B6006E0174B1A68BB69DB431549F6
:1013CC0013400B607B6A01337B623B681A687B6A53
:1013DC0022FA03F3002B7FF4AFAE00BF00BF2C3713
:1013EC00BD4680BC704700BF0000321000003110B9
:1013FC00000022100000211000001210000011103B
:10140C00001002400000014000080140000C0140A7
:10141C00001001400004014080B485B000AF78603A
:10142C000B467B807B689A687B881340002B02D02C
:10143C000123FB7301E00023FB73FB7B184614377D
:10144C00BD4680BC704780B483B000AF78600B465B
:10145C007B8013467B707B78002B03D07A887B686B
:10146C001A6103E07B881A047B681A6100BF0C3791
:10147C00BD4680BC704780B485B000AF78600B4629
:10148C007B807B68DB68FB607A88FB6813401A04FE
:10149C00FB68D9437B880B401A437B681A6100BFF9
:1014AC001437BD4680BC704780B586B000AF7860FD
:1014BC007B68002B01D101236CE27B681B6803F075
:1014CC000103002B00F08780924B5B6803F00C0348
:1014DC00042B0CD08F4B5B6803F00C03082B12D140
:1014EC008C4B5B6803F48033B3F5803F0BD1894B95
:1014FC001B6803F40033002B6CD07B685B68002BFB
:10150C0068D1012346E27B685B68B3F5803F06D166
:10151C00804B1B687F4A43F4803313602EE07B685A
:10152C005B68002B0CD17B4B1B687A4A23F480330D
:10153C001360784B1B68774A23F4802313601DE0FB
:10154C007B685B68B3F5A02F0CD1724B1B68714A9A
:10155C0043F4802313606F4B1B686E4A43F4803353
:10156C0013600BE06B4B1B686A4A23F480331360E7
:10157C00684B1B68674A23F4802313607B685B68A5
:10158C00002B13D0FFF7B6FC386108E0FFF7B2FC74
:10159C0002463B69D31A642B01D90323FAE15D4B54
:1015AC001B6803F40033002BF0D014E0FFF7A2FC0F
:1015BC00386108E0FFF79EFC02463B69D31A642BA6
:1015CC0001D90323E6E1534B1B6803F40033002BD2
:1015DC00F0D100E000BF7B681B6803F00203002B16
:1015EC0063D04C4B5B6803F00C03002B0BD0494BC6
:1015FC005B6803F00C03082B1CD1464B5B6803F4AF
:10160C008033002B16D1434B1B6803F00203002BD5
:10161C0005D07B681B69012B01D00123BAE13D4B3E
:10162C001B6823F0F8027B685B69DB0039491343C4
:10163C000B603AE07B681B69002B20D0364B0122F3
:10164C001A60FFF757FC386108E0FFF753FC0246BD
:10165C003B69D31A022B01D903239BE12D4B1B6849
:10166C0003F00203002BF0D02A4B1B6823F0F80286
:10167C007B685B69DB00274913430B6015E0264B45
:10168C0000221A60FFF736FC386108E0FFF732FCE5
:10169C0002463B69D31A022B01D903237AE11D4B75
:1016AC001B6803F00203002BF0D17B681B6803F06E
:1016BC000803002B3AD07B689B69002B19D0174B81
:1016CC0001221A60FFF716FC386108E0FFF712FCE4
:1016DC0002463B69D31A022B01D903235AE10D4B65
:1016EC005B6A03F00203002BF0D0012000F09AFAA1
:1016FC001CE00A4B00221A60FFF7FCFB38610FE07C
:10170C00FFF7F8FB02463B69D31A022B08D90323D7
:10171C0040E100BF001002400000424280044242FF
:10172C009E4B5B6A03F00203002BE9D17B681B68BC
:10173C0003F00403002B00F0A6800023FB75974BED
:10174C00DB6903F08053002B0DD1944BDB69934A7A
:10175C0043F08053D361914BDB6903F08053BB6042
:10176C00BB680123FB758E4B1B6803F48073002B45
:10177C0018D18B4B1B688A4A43F480731360FFF7B4
:10178C00B9FB386108E0FFF7B5FB02463B69D31A99
:10179C00642B01D90323FDE0814B1B6803F4807398
:1017AC00002BF0D07B68DB68012B06D17B4B1B6ACE
:1017BC007A4A43F0010313622DE07B68DB68002B4F
:1017CC000CD1764B1B6A754A23F001031362734BE1
:1017DC001B6A724A23F0040313621CE07B68DB680B
:1017EC00052B0CD16D4B1B6A6C4A43F0040313623E
:1017FC006A4B1B6A694A43F0010313620BE0674BA7
:10180C001B6A664A23F001031362644B1B6A634A2A
:10181C0023F0040313627B68DB68002B15D0FFF701
:10182C0069FB38610AE0FFF765FB02463B69D31A96
:10183C0041F28832934201D90323ABE0574B1B6A28
:10184C0003F00203002BEED014E0FFF753FB3861DA
:10185C000AE0FFF74FFB02463B69D31A41F288328C
:10186C00934201D9032395E04C4B1B6A03F002030E
:10187C00002BEED1FB7D012B05D1484BDB69474A90
:10188C0023F08053D3617B68DB69002B00F08180EF
:10189C00424B5B6803F00C03082B61D07B68DB695F
:1018AC00022B46D13F4B00221A60FFF723FB386115
:1018BC0008E0FFF71FFB02463B69D31A022B01D944
:1018CC00032367E0354B1B6803F00073002BF0D14A
:1018DC007B681B6AB3F5803F08D1304B5B6823F4FF
:1018EC0000327B689B682D4913434B602B4B5B6824
:1018FC0023F474127B68196A7B685B6A0B43274973
:10190C0013434B60274B01221A60FFF7F3FA38613F
:10191C0008E0FFF7EFFA02463B69D31A022B01D914
:10192C00032337E01D4B1B6803F00073002BF0D032
:10193C002FE01C4B00221A60FFF7DCFA386108E03C
:10194C00FFF7D8FA02463B69D31A022B01D90323BD
:10195C0020E0124B1B6803F00073002BF0D118E051
:10196C007B68DB69012B01D1012313E00B4B5B6816
:10197C00FB60FB6803F480327B681B6A9A4206D1D9
:10198C00FB6803F470127B685B6A9A4201D00123F6
:10199C0000E0002318461837BD4680BD00100240F9
:1019AC00007000406000424280B584B000AF7860A7
:1019BC0039607B68002B01D10123D0E06A4B1B6896
:1019CC0003F007033A689A4210D9674B1B6823F05F
:1019DC00070265493B6813430B60634B1B6803F0BC
:1019EC0007033A689A4201D00123B8E07B681B6870
:1019FC0003F00203002B20D07B681B6803F0040368
:101A0C00002B05D0594B5B68584A43F4E063536094
:101A1C007B681B6803F00803002B05D0534B5B68F5
:101A2C00524A43F460535360504B5B6823F0F0020E
:101A3C007B689B684D4913434B607B681B6803F0C4
:101A4C000103002B40D07B685B68012B07D1474B0F
:101A5C001B6803F40033002B15D101237FE07B6856
:101A6C005B68022B07D1414B1B6803F00073002B02
:101A7C0009D1012373E03D4B1B6803F00203002BDB
:101A8C0001D101236BE0394B5B6823F003027B68C7
:101A9C005B68364913434B60FFF72CFAF8600AE099
:101AAC00FFF728FA0246FB68D31A41F288329342B8
:101ABC0001D9032353E02D4B5B6803F00C027B68C8
:101ACC005B689B009A42EBD1274B1B6803F0070322
:101ADC003A689A4210D2244B1B6823F00702224921
:101AEC003B6813430B60204B1B6803F007033A68F9
:101AFC009A4201D0012332E07B681B6803F0040397
:101B0C00002B08D0194B5B6823F4E0627B68DB6820
:101B1C00164913434B607B681B6803F00803002BCA
:101B2C0009D0124B5B6823F460527B681B69DB00A5
:101B3C000E4913434B6000F021F802460B4B5B68D7
:101B4C001B0903F00F030A49CB5C22FA03F3094A81
:101B5C001360094B1B681846FFF78AF900231846D7
:101B6C001037BD4680BD00BF00200240001002406F
:101B7C00942400084C0000205000002080B487B052
:101B8C0000AF0023FB600023BB6000237B610023BC
:101B9C007B6000233B611E4B5B68FB60FB6803F0C2
:101BAC000C03042B02D0082B03D027E0194B3B610C
:101BBC0027E0FB689B0C03F00F03174AD35C7B6098
:101BCC00FB6803F48033002B10D0114B5B685B0C6B
:101BDC0003F00103114AD35CBB607B680D4A02FB26
:101BEC0003F2BB68B2FBF3F37B6104E07B680C4A45
:101BFC0002FB03F37B617B693B6102E0054B3B61BC
:101C0C0000BF3B6918461C37BD4680BC704700BFFF
:101C1C000010024000127A00A4240008B42400082A
:101C2C0000093D0080B485B000AF78600A4B1B689A
:101C3C000A4AA2FB03235B0A7A6802FB03F3FB60EC
:101C4C0000BFFB685A1EFA60002BF9D100BF00BF21
:101C5C001437BD4680BC70474C000020D34D621039
:101C6C0080B582B000AF78607B68002B01D1012376
:101C7C0041E07B6893F83D30DBB2002B06D17B68EA
:101C8C00002283F83C207868FEF7BCFF7B680222B8
:101C9C0083F83D207B681A687B680433194610462C
:101CAC0000F056FA7B68012283F846207B680122FB
:101CBC0083F83E207B68012283F83F207B68012259
:101CCC0083F840207B68012283F841207B68012245
:101CDC0083F842207B68012283F843207B68012231
:101CEC0083F844207B68012283F845207B6801221D
:101CFC0083F83D20002318460837BD4680BD000000
:101D0C0080B485B000AF78607B6893F83D30DBB26F
:101D1C00012B01D0012335E07B68022283F83D20A2
:101D2C007B681B68DA687B681B6842F00102DA602A
:101D3C007B681B68164A934209D07B681B68B3F119
:101D4C00804F04D07B681B68124A934211D17B6888
:101D5C001B689B6803F00703FB60FB68062B10D025
:101D6C007B681B681A687B681B6842F001021A606A
:101D7C0007E07B681B681A687B681B6842F00102ED
:101D8C001A60002318461437BD4680BC704700BF4C
:101D9C00002C01400004004080B584B000AF786096
:101DAC007B681B68DB68FB607B681B681B69BB601E
:101DBC00BB6803F00203002B20D0FB6803F0020386
:101DCC00002B1BD07B681B686FF002021A617B68CA
:101DDC0001221A777B681B689B6903F00303002BB5
:101DEC0003D0786800F098F905E0786800F08BF97A
:101DFC00786800F09AF97B6800221A77BB6803F0C8
:101E0C000403002B20D0FB6803F00403002B1BD031
:101E1C007B681B686FF004021A617B6802221A77D8
:101E2C007B681B689B6903F44073002B03D07868B4
:101E3C0000F072F905E0786800F065F9786800F058
:101E4C0074F97B6800221A77BB6803F00803002B37
:101E5C0020D0FB6803F00803002B1BD07B681B68A9
:101E6C006FF008021A617B6804221A777B681B6882
:101E7C00DB6903F00303002B03D0786800F04CF906
:101E8C0005E0786800F03FF9786800F04EF97B685F
:101E9C0000221A77BB6803F01003002B20D0FB68DC
:101EAC0003F01003002B1BD07B681B686FF0100233
:101EBC001A617B6808221A777B681B68DB6903F45C
:101ECC004073002B03D0786800F026F905E07868A1
:101EDC0000F019F9786800F028F97B6800221A776D
:101EEC00BB6803F00103002B0CD0FB6803F001036B
:101EFC00002B07D07B681B686FF001021A617868B1
:101F0C00FEF76EFFBB6803F08003002B0CD0FB6860
:101F1C0003F08003002B07D07B681B686FF08002F6
:101F2C001A61786800F06FFABB6803F04003002B6D
:101F3C000CD0FB6803F04003002B07D07B681B68B8
:101F4C006FF040021A61786800F0F8F8BB6803F093
:101F5C002003002B0CD0FB6803F02003002B07D0D0
:101F6C007B681B686FF020021A61786800F042FAF7
:101F7C0000BF1037BD4680BD80B584B000AF78601F
:101F8C0039600023FB737B6893F83C30012B01D143
:101F9C000223B4E07B68012283F83C207B68022298
:101FAC0083F83D207B681B689B68BB60BB6823F093
:101FBC007703BB60BB6823F47F43BB607B681B6803
:101FCC00BA689A603B681B68B3F5005F3ED0B3F506
:101FDC00005F00F28780B3F5805F00F08680B3F578
:101FEC00805F7FD8702B1AD0702B7BD8602B50D091
:101FFC00602B77D8502B3CD0502B73D8402B58D01B
:10200C00402B6FD8302B64D0302B6BD8202B60D06A
:10201C00202B67D8002B5CD0102B5AD062E07B6849
:10202C0018683B6899683B685A683B68DB6800F045
:10203C006AF97B681B689B68BB60BB6843F07703DD
:10204C00BB607B681B68BA689A604FE07B68186855
:10205C003B6899683B685A683B68DB6800F053F949
:10206C007B681B689A687B681B6842F480429A60A4
:10207C003CE07B6818683B6859683B68DB681A462B
:10208C0000F0CAF87B681B685021184600F021F953
:10209C002CE07B6818683B6859683B68DB681A461B
:1020AC0000F0E8F87B681B686021184600F011F915
:1020BC001CE07B6818683B6859683B68DB681A460B
:1020CC0000F0AAF87B681B684021184600F001F963
:1020DC000CE07B681A683B681B681946104600F0D8
:1020EC00F8F803E00123FB7300E000BF7B680122DA
:1020FC0083F83D207B68002283F83C20FB7B18464C
:10210C001037BD4680BD80B483B000AF786000BF8F
:10211C000C37BD4680BC704780B483B000AF78608C
:10212C0000BF0C37BD4680BC704780B483B000AF95
:10213C00786000BF0C37BD4680BC704780B483B05C
:10214C0000AF786000BF0C37BD4680BC7047000004
:10215C0080B485B000AF786039607B681B68FB6029
:10216C007B682B4A934207D07B68B3F1804F03D036
:10217C007B68284A934208D1FB6823F07003FB600C
:10218C003B685B68FA681343FB607B68204A9342A8
:10219C0007D07B68B3F1804F03D07B681D4A934214
:1021AC0008D1FB6823F44073FB603B68DB68FA687A
:1021BC001343FB60FB6823F080023B685B691343AD
:1021CC00FB607B68FA681A603B689A687B68DA6225
:1021DC003B681A687B689A627B680D4A934203D10C
:1021EC003B681A697B681A637B6801225A617B68B9
:1021FC001B6903F00103002B05D07B681B6923F0DE
:10220C0001027B681A6100BF1437BD4680BC704761
:10221C00002C01400004004080B487B000AFF8608F
:10222C00B9607A60FB681B6A7B61FB681B6A23F0F0
:10223C000102FB681A62FB689B693B613B6923F0F6
:10224C00F0033B617B681B013A6913433B617B697B
:10225C0023F00A037B617A69BB6813437B61FB68DB
:10226C003A699A61FB687A691A6200BF1C37BD46ED
:10227C0080BC704780B487B000AFF860B9607A60FA
:10228C00FB681B6A7B61FB681B6A23F01002FB680E
:10229C001A62FB689B693B613B6923F470433B61A9
:1022AC007B681B033A6913433B617B6923F0A003F2
:1022BC007B61BB681B017A6913437B61FB683A69DC
:1022CC009A61FB687A691A6200BF1C37BD4680BCF4
:1022DC00704780B485B000AF786039607B689B68CC
:1022EC00FB60FB6823F07003FB603A68FB681343E8
:1022FC0043F00703FB607B68FA689A6000BF1437F1
:10230C00BD4680BC704780B487B000AFF860B96040
:10231C007A603B60FB689B687B617B6923F47F433D
:10232C007B613B681A027B681A43BB6813437A696A
:10233C0013437B61FB687A699A6000BF1C37BD460A
:10234C0080BC704780B485B000AF786039607B6822
:10235C0093F83C30012B01D1022341E07B68012230
:10236C0083F83C207B68022283F83D207B681B6845
:10237C005B68FB607B681B689B68BB60FB6823F039
:10238C007003FB603B681B68FA681343FB607B6857
:10239C001B68FA685A607B681B68144A934209D020
:1023AC007B681B68B3F1804F04D07B681B68104AB4
:1023BC0093420CD1BB6823F08003BB603B685B6825
:1023CC00BA681343BB607B681B68BA689A607B6809
:1023DC00012283F83D207B68002283F83C200023F7
:1023EC0018461437BD4680BC704700BF002C014016
:1023FC000004004080B483B000AF786000BF0C379D
:10240C00BD4680BC704780B483B000AF786000BF1D
:10241C000C37BD4680BC704770B500260C4D0D4C7A
:10242C00641BA410A64209D100F022F800260A4D24
:10243C000A4C641BA410A64205D170BD55F8043B90
:10244C0098470136EEE755F8043B98470136F2E71A
:10245C00B8240008B8240008B8240008BC240008DC
:10246C0003460244934200D1704703F8011BF9E77D
:10247C00F8B500BFF8BC08BC9E467047F8B500BF65
:08248C00F8BC08BC9E46704735
:102494000000000000000000010203040607080910
:1024A40002030405060708090A0B0C0D0E0F101091
:0424B4000102000021
:0424B80031010008E6
:0424BC000D01000806
:1024C0000100000001000000010000000100000008
:1024D00001000000010000000100000001000000F8
:1024E00001000000010000000100000001000000E8
:1024F000C800000032000000C80000000100000019
:1025000014000000140000001400000000127A0003
:082510001000000001000000B2
:0400000508000E05DC
:00000001FF
