:020000040800F2
:100000000028002055140008E5130008EB13000831
:10001000F1130008F7130008FD13000800000000AA
:1000200000000000000000000000000003140008B1
:100030000F140008000000001B140008271400081B
:100040009D1400089D1400089D1400089D140008CC
:100050009D1400089D1400089D1400089D140008BC
:100060009D1400089D1400089D1400089D140008AC
:100070009D1400089D1400089D1400089D1400089C
:100080009D1400089D1400089D1400089D1400088C
:100090009D1400089D1400089D1400089D1400087C
:1000A0009D1400089D1400089D1400089D1400086C
:1000B000351400089D140008000000009D1400087D
:1000C0009D14000800000000000000009D140008BE
:1000D000000000009D1400089D14000800000000AE
:1000E0009D1400089D1400089D14000800000000E5
:1000F0000000000000000000000000000000000000
:0C01000000000000000000005FF808F1A3
:10010C0010B5054C237833B9044B13B10448AFF345
:10011C0000800123237010BD70000020000000003F
:10012C009C2A000808B5034B1BB103490348AFF3E5
:10013C00008008BD00000000740000209C2A00080C
:10014C0080B485B000AFF860B9607A60294B1B7839
:10015C00272B4AD8274B1B781946274A0B469B005E
:10016C000B449B001344FA681A60224B1B78184608
:10017C00BB68224AA2FB0323DA081F4903469B00F3
:10018C0003449B000B4404331A601A4B1B7818462B
:10019C007B681A4AA2FB0323DA08174903469B0023
:1001AC0003449B000B4408331A60124B1B7819460E
:1001BC00114A0B469B000B449B0013440C3300224A
:1001CC001A700C4B1A780B4B1B78194610460A4ABE
:1001DC000B469B000B449B00134410331860054BDB
:1001EC001B780133DAB2034B1A7000BF1437BD46CB
:1001FC0080BC70478C000020B0000020CDCCCCCC53
:10020C0080B582B000AF00F049F900237B6048E074
:10021C0029497A6813469B0013449B000B44043312
:10022C001B68002B13D024497A6813469B00134497
:10023C009B000B4404331B68591E1F487A681346F5
:10024C009B0013449B0003440433196026E01A49B5
:10025C007A6813469B0013449B000B4408331968BF
:10026C0015487A6813469B0013449B0003440433DF
:10027C00196011497A6813469B0013449B000B4488
:10028C000C331B780133D8B20B497A6813469B00A8
:10029C0013449B000B440C3302461A707B680133E9
:1002AC007B60064B1B781A467B689342B0DB00BF21
:1002BC0000BF0837BD4680BDB00000208C00002078
:1002CC0080B582B000AF00237B603AE022497A68A7
:1002DC0013469B0013449B000B440C331B78002BE0
:1002EC002CD01D497A6813469B0013449B000B4489
:1002FC000C331B78013BD8B217497A6813469B0024
:10030C0013449B000B440C3302461A7012497A6852
:10031C0013469B0013449B000B441B6898470E49E3
:10032C007A6813469B0013449B000B4408331B68EC
:10033C00002B03D17B68184600F012F87B68013360
:10034C007B60064B1B781A467B689342BEDB00BF72
:10035C0000BF0837BD4680BDB00000208C000020D7
:10036C00B0B483B000AF7860274B1B781A467B681B
:10037C00934227D125497A6813469B0013449B006E
:10038C000B4400221A6021497A6813469B001344DF
:10039C009B000B44043300221A601C497A681346F4
:1003AC009B0013449B000B44083300221A6017492E
:1003BC007A6813469B0013449B000B440C330022B9
:1003CC001A7015E0104B1B78184610497A681346C2
:1003DC009B0013449B0019440C4A03469B000344A6
:1003EC009B0013440C461D460FCD0FC42B68236095
:1003FC00054B1B78013BDAB2034B1A7000BF0C376C
:10040C00BD46B0BC704700BF8C000020B00000207F
:10041C0080B400AF064B1B68012B04D1044B0022A7
:10042C001A60012300E000231846BD4680BC7047CB
:10043C009000002080B400AF064B5B68012B04D108
:10044C00044B00225A60012300E000231846BD46ED
:10045C0080BC70479000002080B400AF064B9B68B6
:10046C00012B04D1044B00229A60012300E00023ED
:10047C001846BD4680BC70479000002080B400AF89
:10048C00054B5B68312B01DD012300E0002318468E
:10049C00BD4680BC704700BF9C00002080B582B078
:1004AC0000AF514B1B68514A1360514B1B684E4AAD
:1004BC0013604FF400414F4801F0D6FA03461A4638
:1004CC004B4B1A60484B5B68484A5360484B5B681F
:1004DC00454A53604FF48041464801F0C5FA034643
:1004EC001A46434B5A60404B9B68404A9360404BC2
:1004FC009B683D4A93604FF400513E4801F0B4FABA
:10050C0003461A463A4B9A6000237B6064E0374AF4
:10051C007B6852F8232034497B6851F823309A4287
:10052C0057D1314A7B6852F8232031497B6851F806
:10053C0023309A424DD1304A7B6852F823202C4903
:10054C007B6851F823309A421DD0294A7B6852F8B7
:10055C00232029497B6841F82320274A7B6852F8DD
:10056C002330002B35D1254A7B68012142F823101A
:10057C00234A7B68C82142F82310224A7B68002159
:10058C0042F8231025E01E4A7B6852F823305A1E8D
:10059C001B497B6841F82320194A7B6852F82330A9
:1005AC00002B04D1144A7B68012142F823107B688C
:1005BC00012B0ED1104A7B6852F82330002B08D146
:1005CC00104A7B6852F823305A1C0E497B6841F85C
:1005DC0023207B6801337B607B68022B97DD00BF97
:1005EC0000BF0837BD4680BD0C0000200000002075
:1005FC0018000020000C0140240000209000002076
:10060C00300000209C00002080B400AF1E4B1B6803
:10061C00042B20D0042B2BDC022B02D0032B0DD06F
:10062C0026E01A4B1B680133184A1360174B1B68E2
:10063C00632B1FDD154B00221A601BE0144B1B684B
:10064C000133134A1360124B1B68632B14DD104BE0
:10065C0000221A6010E00F4B1B6801330D4A136027
:10066C000C4B1B68632B09DD0A4B00221A6005E05A
:10067C0000BF04E000BF02E000BF00E000BF00BF0D
:10068C00BD4680BC704700BF3C00002044000020E9
:10069C004C0000205400002080B400AF0F4B1B68AE
:1006AC00042B10D0042B13DC022B02D0032B05D00F
:1006BC000EE00B4B1B680B4A13600AE00A4B1B68DD
:1006CC000A4A136005E00A4B1B680A4A136000E0F3
:1006DC0000BF00BFBD4680BC704700BF3C0000207F
:1006EC0044000020400000204C0000204800002066
:1006FC00540000205000002080B500AF414B1B7807
:10070C00002B02D0012B17D022E0FFF781FE03460D
:10071C00012B1AD13B4B01221A703B4B1B68013346
:10072C00394A1360384B1B68042B0EDD364B012203
:10073C001A6000F0FBF908E0FFF76AFE0346002B95
:10074C0005D1304B00221A7001E000BF00E000BF61
:10075C002C4B5B78022B24D0022B2BDC002B02D0F1
:10076C00012B15D026E0FFF765FE0346012B04D1C3
:10077C00244B01225A70FFF747FFFFF77FFE034619
:10078C00002B19D01F4B02225A70FFF73DFF13E0CC
:10079C00FFF750FE0346002B10D11A4B00225A7063
:1007AC000CE0FFF76BFE0346002B09D1154B002222
:1007BC005A7005E000BF04E000BF02E000BF00E09B
:1007CC0000BF104B9B78002B02D0012B0BD016E0F6
:1007DC00FFF742FE0346012B0ED10A4B01229A7001
:1007EC00FFF75AFF08E0FFF737FE0346002B05D151
:1007FC00044B00229A7001E000BF00E000BF00BF74
:10080C0080BD00BFA80000203C00002080B582B055
:10081C0000AF78607B68092B00F2808101A252F84E
:10082C0023F000BF59080008A1080008E9080008D7
:10083C003109000879090008C1090008090A0008F3
:10084C00510A0008990A0008E10A00080022012157
:10085C00B54801F020F900220221B34801F01BF940
:10086C0000220421B04801F016F900220821AE48FC
:10087C0001F011F900221021AB4801F00CF9002213
:10088C002021A94801F007F901224021A64801F0D6
:10089C0002F944E101220121A34801F0FCF80022F5
:1008AC000221A14801F0F7F8002204219E4801F032
:1008BC00F2F8012208219C4801F0EDF801221021E8
:1008CC00994801F0E8F801222021974801F0E3F85B
:1008DC0001224021944801F0DEF820E100220121A0
:1008EC00914801F0D8F8002202218F4801F0D3F88A
:1008FC00012204218C4801F0CEF8002208218A48FC
:10090C0001F0C9F800221021874801F0C4F8012237
:10091C002021854801F0BFF800224021824801F0D7
:10092C00BAF8FCE0002201217F4801F0B4F8002263
:10093C0002217D4801F0AFF8002204217A4801F031
:10094C00AAF800220821784801F0A5F8012210210C
:10095C00754801F0A0F801222021734801F09BF8A2
:10096C0000224021704801F096F8D8E001220121C4
:10097C006D4801F090F8002202216B4801F08BF8D1
:10098C0000220421684801F086F8012208216648FB
:10099C0001F081F801221021634801F07CF800225B
:1009AC002021614801F077F8002240215E4801F0D7
:1009BC0072F8B4E0002201215B4801F06CF80122CE
:1009CC000221594801F067F800220421564801F031
:1009DC0062F800220821544801F05DF80122102130
:1009EC00514801F058F8002220214F4801F053F8EB
:1009FC00002240214C4801F04EF890E000220121E9
:100A0C00494801F048F801220221474801F043F817
:100A1C0000220421444801F03EF8002208214248FB
:100A2C0001F039F8002210213F4801F034F800227F
:100A3C0020213D4801F02FF8002240213A4801F0D6
:100A4C002AF86CE000220121374801F024F800223A
:100A5C000221354801F01FF800220421324801F030
:100A6C001AF801220821304801F015F80122102152
:100A7C002D4801F010F8012220212B4801F00BF831
:100A8C0001224021284801F006F848E0002201210B
:100A9C00254801F000F800220221234800F0FBFF5A
:100AAC0000220421204800F0F6FF002208211E48F5
:100ABC0000F0F1FF002210211B4800F0ECFF002297
:100ACC002021194800F0E7FF00224021164800F0D1
:100ADC00E2FF24E000220121134800F0DCFF002299
:100AEC000221114800F0D7FF002204210E4800F02B
:100AFC00D2FF002208210C4800F0CDFF012210216A
:100B0C00094800F0C8FF00222021074800F0C3FF6D
:100B1C0000224021044800F0BEFF00E000BF00BFEF
:100B2C000837BD4680BD00BF000C014080B400AF4B
:100B3C00084B1B68084A1360084B1B68084A136073
:100B4C00084B02221A70084B00221A7000BFBD46D7
:100B5C0080BC7047400000205C000020500000204A
:100B6C006000002058000020AB00002080B400AFD3
:100B7C00104B1B68013B032B16D801A252F823F033
:100B8C009D0B0008A30B0008A90B0008AF0B000875
:100B9C00094B1B680AE0094B1B6807E0084B1B68F4
:100BAC0004E0084B1B6801E000BF00231846BD465B
:100BBC0080BC70473C0000205C00002044000020FA
:100BCC004C0000205400002080B400AF104B1B6878
:100BDC00013B032B16D801A252F823F0F90B0008A5
:100BEC00FF0B0008050C00080B0C0008094B1B68D8
:100BFC000AE0094B1B6807E0084B1B6804E0084B34
:100C0C001B6801E000BF00231846BD4680BC70473E
:100C1C003C00002060000020440000204C0000201C
:100C2C005400002080B500AFA24B1B68013BA14AC9
:100C3C001360A14B1B68013B9F4A13609F4B1B78B1
:100C4C00022B5DD0022B00F38680002B02D0012BEF
:100C5C002BD080E000222021994800F01CFF0122BB
:100C6C004021974800F017FF01228021944800F0A2
:100C7C0012FF904B1B68002B6FDA924B1B68013BE9
:100C8C008C4A13608D4B02221A70012220218C4851
:100C9C0000F001FF01224021894800F0FCFE0022F7
:100CAC008021874800F0F7FE57E00122202184487C
:100CBC0000F0F1FE00224021814800F0ECFE012200
:100CCC0080217F4800F0E7FE7A4B1B68002B46DA48
:100CDC007D4B1B68013B774A1360784B00221A70DE
:100CEC0000222021764800F0D6FE012240217448D3
:100CFC0000F0D1FE01228021714800F0CCFE2EE0E4
:100D0C00012220216E4800F0C6FE012240216C48D1
:100D1C0000F0C1FE00228021694800F0BCFE654B4A
:100D2C001B68002B1DDA694B1B68013B614A136081
:100D3C00624B01221A7001222021614800F0ABFEA7
:100D4C00002240215E4800F0A6FE012280215C4872
:100D5C0000F0A1FE05E000BF04E000BF02E000BF10
:100D6C0000E000BF5A4B1B78022B69D0022B00F31A
:100D7C009880002B02D0012B31D092E000224FF44E
:100D8C0000514F4800F087FE01224FF480414C483F
:100D9C0000F081FE01224FF40041494800F07BFE37
:100DAC00454B1B68002B7EDA464B1B68013B424AC5
:100DBC001360474B02221A7001224FF40051404835
:100DCC0000F069FE01224FF480413D4800F063FEC3
:100DDC0000224FF400413A4800F05DFE63E001222E
:100DEC004FF40051364800F056FE00224FF480417B
:100DFC00334800F050FE01224FF40041304800F01F
:100E0C004AFE2D4B1B68002B4FDA2F4B1B68013B06
:100E1C00294A13602E4B00221A7000224FF4005105
:100E2C00274800F038FE01224FF48041244800F09E
:100E3C0032FE01224FF40041214800F02CFE34E038
:100E4C0001224FF400511E4800F025FE01224FF400
:100E5C0080411B4800F01FFE00224FF4004118484F
:100E6C0000F019FE144B1B68002B20DA174B1B6883
:100E7C00013B114A1360164B01221A7001224FF4E8
:100E8C0000510F4800F007FE00224FF480410C483F
:100E9C0000F001FE01224FF40041094800F0FBFD77
:100EAC0005E000BF04E000BF02E000BF00E000BFAF
:100EBC0000BF80BD5C00002060000020AB00002063
:100ECC000008014050000020400000204800002095
:100EDC005800002080B500AF7E4B1B68042B00F23D
:100EEC00F68001A252F823F0090F0008650F0008E4
:100EFC00CB0F0008271000088D10000800224FF4BB
:100F0C008051754800F0C7FD01224FF48071724882
:100F1C0000F0C1FD00224FF400716F4800F0BBFDE2
:100F2C0000224FF480616C4800F0B5FD00224FF4B4
:100F3C000061694800F0AFFDFFF718FE0346674AF1
:100F4C0082FB03129210DB17D31A1846FFF75EFCD4
:100F5C00604B01221A60BBE000224FF480515E48C6
:100F6C0000F099FD00224FF480715B4800F093FD76
:100F7C0001224FF40071584800F08DFD00224FF40F
:100F8C008061554800F087FD00224FF40061524803
:100F9C0000F081FDFFF7EAFD0146504B83FB012376
:100FAC009A10CB17D21A13469B0013445B00CA1A33
:100FBC001046FFF72BFC474B02221A6088E00022F8
:100FCC004FF48051444800F066FD00224FF48071CC
:100FDC00414800F060FD00224FF400713E4800F0E3
:100FEC005AFD01224FF480613B4800F054FD002271
:100FFC004FF40061384800F04EFDFFF7E5FD034665
:10100C00364A82FB03129210DB17D31A1846FFF7ED
:10101C00FDFB304B03221A605AE000224FF4805142
:10102C002D4800F038FD00224FF480712A4800F062
:10103C0032FD00224FF40071274800F02CFD0022F5
:10104C004FF48061244800F026FD01224FF400612A
:10105C00214800F020FDFFF7B7FD01461F4B83FB35
:10106C0001239A10CB17D21A13469B0013445B0032
:10107C00CA1A1046FFF7CAFB164B04221A6027E067
:10108C0001224FF48051144800F005FD00224FF46A
:10109C008071114800F0FFFC00224FF400710E48E3
:1010AC0000F0F9FC00224FF480610B4800F0F3FCD7
:1010BC0000224FF40061084800F0EDFC084B1B685F
:1010CC001846FFF7A3FB034B00221A6000E000BF99
:1010DC0000BF80BDAC00002000080140676666665A
:1010EC003C00002080B500AF00F0D4F900F022F8ED
:1010FC0000F0A8F800F05AF80A4801F011F90A2299
:10110C0001210948FFF71CF8322200210748FFF79C
:10111C0017F84FF47A7200210548FFF711F8FFF722
:10112C00CFF8FCE7D0030020E10E0008050700080B
:10113C00310C000880B590B000AF07F118032822DD
:10114C000021184601F09CFC3B1D00221A605A60DD
:10115C009A60DA601A610223BB610123BB6210231F
:10116C00FB6200237B6307F11803184600F0ACFC0C
:10117C000346002B01D000F0D3F80F237B60002333
:10118C00BB600023FB6000233B6100237B613B1DA4
:10119C000021184600F018FF0346002B01D000F088
:1011AC00BFF800BF4037BD4680BD000080B586B09B
:1011BC0000AF07F1080300221A605A609A60DA60E7
:1011CC003B4600221A605A601D4B4FF080421A6059
:1011DC001B4B41F63F725A60194B00229A60184B18
:1011EC000922DA60164B00221A61154B00229A6113
:1011FC00134801F045F80346002B01D000F090F89D
:10120C004FF48053BB6007F1080319460C4801F0FA
:10121C00C3F90346002B01D000F082F800233B6099
:10122C0000237B603B461946054801F09BFB0346B7
:10123C00002B01D000F074F800BF1837BD4680BDFC
:10124C00D003002080B586B000AF07F10803002260
:10125C001A605A609A60DA60284B9B69274A43F0FF
:10126C0004039361254B9B6903F004037B607B684B
:10127C00224B9B69214A43F0080393611F4B9B69E6
:10128C0003F008033B603B6800224FF6E0711C48FA
:10129C0000F001FC00227F211A4800F0FCFB4FF605
:1012AC00E073BB600123FB6000233B6102237B6185
:1012BC0007F108031946124800F05CFA7F23BB6063
:1012CC000123FB6000233B6102237B6107F10803D0
:1012DC0019460C4800F04EFA4FF46043BB600023F3
:1012EC00FB6001233B6107F108031946054800F038
:1012FC0041FA00BF1837BD4680BD00BF0010024048
:10130C0000080140000C014080B582B000AF78604D
:10131C00FFF7C4F8FEF774FF00BF0837BD4680BD69
:10132C0080B400AF72B600BFFEE7000080B485B099
:10133C0000AF154B9B69144A43F001039361124BA8
:10134C009B6903F00103BB60BB680F4BDB690E4A62
:10135C0043F08053D3610C4BDB6903F080537B600B
:10136C007B680A4B5B68FB60FB6823F0E063FB6007
:10137C00FB6843F08063FB60044AFB68536000BF6A
:10138C001437BD4680BC704700100240000001407D
:10139C0080B584B000AF78607B681B68B3F1804F78
:1013AC0013D10C4BDB690B4A43F00103D361094B9E
:1013BC00DB6903F00103FB60FB68002200211C20A9
:1013CC0000F0A1F91C2000F0BAF900BF1037BD469F
:1013DC0080BD00BF0010024080B400AFFEE780B4B7
:1013EC0000AFFEE780B400AFFEE780B400AFFEE7CD
:1013FC0080B400AFFEE780B400AF00BFBD4680BC38
:10140C00704780B400AF00BFBD4680BC704780B44D
:10141C0000AF00BFBD4680BC704780B500AF00F088
:10142C007FF800BF80BD000080B500AF024800F01F
:10143C00C3FF00BF80BD00BFD003002080B400AF4D
:10144C0000BFBD4680BC7047FFF7F8FF0B480C4946
:10145C000C4A002302E0D458C4500433C4188C4204
:10146C00F9D3094A094C002301E013600432A2426B
:10147C00FBD301F0E1FAFFF735FE704700000020C6
:10148C0070000020E02A0008700000201C040020DE
:10149C00FEE7000080B500AF084B1B68074A43F01D
:1014AC0010031360032000F023F90F2000F008F85C
:1014BC00FFF73CFF0023184680BD00BF0020024010
:1014CC0080B582B000AF7860124B1A68124B1B7853
:1014DC0019464FF47A73B3FBF1F3B2FBF3F31846EE
:1014EC0000F03BF90346002B01D001230EE07B6892
:1014FC000F2B0AD8002279684FF0FF3000F003F967
:10150C00064A7B681360002300E001231846083765
:10151C00BD4680BD640000206C00002068000020E7
:10152C0080B400AF054B1B781A46054B1B6813445F
:10153C00034A136000BFBD4680BC70476C0000209E
:10154C001804002080B400AF024B1B681846BD463F
:10155C0080BC70471804002080B485B000AF786060
:10156C007B6803F00703FB600C4BDB68BB60BA685D
:10157C004FF6FF031340BB60FB681A02BB681343B2
:10158C0043F0BF6343F40033BB60044ABB68D360D1
:10159C0000BF1437BD4680BC704700BF00ED00E0B3
:1015AC0080B400AF044BDB681B0A03F0070318463A
:1015BC00BD4680BC704700BF00ED00E080B483B036
:1015CC0000AF0346FB7197F90730002B0BDBFB795F
:1015DC0003F01F02064997F907305B09012000FA56
:1015EC0002F241F8232000BF0C37BD4680BC704787
:1015FC0000E100E080B483B000AF03463960FB71BA
:10160C0097F90730002B0ADB3B68DAB20C4997F9E3
:10161C0007301201D2B20B4483F800230AE03B6876
:10162C00DAB20849FB7903F00F03043B1201D2B282
:10163C000B441A7600BF0C37BD4680BC704700BF08
:10164C0000E100E000ED00E080B489B000AFF8608C
:10165C00B9607A60FB6803F00703FB61FB69C3F1B7
:10166C000703042B28BF0423BB61FB690433062B3F
:10167C0002D9FB69033B00E000237B614FF0FF3292
:10168C00BB6902FA03F3DA43BB681A407B699A40E0
:10169C004FF0FF317B6901FA03F3D9437B680B40B0
:1016AC00134318462437BD4680BC704780B582B0C2
:1016BC0000AF78607B68013BB3F1807F01D30123DD
:1016CC000FE00A4A7B68013B53600F214FF0FF305B
:1016DC00FFF790FF054B00229A60044B07221A601B
:1016EC00002318460837BD4680BD00BF10E000E05F
:1016FC0080B582B000AF78607868FFF72DFF00BF2F
:10170C000837BD4680BD80B586B000AF0346B960D2
:10171C007A60FB7300237B61FFF742FF78617A6884
:10172C00B9687869FFF790FF024697F90F301146B8
:10173C001846FFF75FFF00BF1837BD4680BD80B568
:10174C0082B000AF0346FB7197F907301846FFF7DC
:10175C0035FF00BF0837BD4680BD80B582B000AFF5
:10176C0078607868FFF7A2FF034618460837BD4635
:10177C0080BD000080B48BB000AF7860396000236E
:10178C007B6200233B6248E101227B6A02FA03F38D
:10179C00FB613B681B68FA691340BB61BA69FB6962
:1017AC009A4240F037813B685B68A34A93425ED013
:1017BC00A14A934275D8A14A934258D09F4A93426A
:1017CC006FD89F4A934252D09D4A934269D89D4A02
:1017DC0093424CD09B4A934263D89B4A934246D047
:1017EC00994A93425DD8122B2AD8122B59D801A2B0
:1017FC0052F823F07B1800085518000867180008E9
:10180C00A9180008AF180008AF180008AF18000896
:10181C00AF180008AF180008AF180008AF18000880
:10182C00AF180008AF180008AF180008AF18000870
:10183C00AF180008AF1800085D18000871180008F0
:10184C00824A934213D02CE03B68DB683B6229E070
:10185C003B68DB6804333B6224E03B68DB6808339D
:10186C003B621FE03B68DB680C333B621AE03B6871
:10187C009B68002B02D104233B6213E03B689B68FE
:10188C00012B05D108233B627B68FA691A6109E0D8
:10189C0008233B627B68FA695A6103E000233B62D0
:1018AC0000E000BFBB69FF2B01D87B6801E07B68BF
:1018BC0004337B61BB69FF2B02D87B6A9B0002E07F
:1018CC007B6A083B9B003B617B691A680F213B6973
:1018DC0001FA03F3DB431A40396A3B6901FA03F35B
:1018EC001A437B691A603B685B6803F08053002BDA
:1018FC0000F09080564B9B69554A43F0010393616D
:10190C00534B9B6903F00103BB60BB68514A7B6A74
:10191C009B08023352F82330FB607B6A03F003030D
:10192C009B000F2202FA03F3DB43FA681340FB60BF
:10193C007B68494A93420DD07B68484A934207D052
:10194C007B68474A934201D1022304E0032302E05F
:10195C00012300E000237A6A02F003029200934014
:10196C00FA681343FB603B497B6A9B080233FA68B5
:10197C0041F823203B685B6803F48013002B06D0EE
:10198C00384B9A683749BB6913438B6006E0354B7B
:10199C009A68BB69DB43334913408B603B685B68D7
:1019AC0003F40013002B06D02E4BDA682D49BB69CB
:1019BC001343CB6006E02B4BDA68BB69DB43294948
:1019CC001340CB603B685B6803F40033002B06D0FC
:1019DC00244B5A682349BB6913434B6006E0214BE7
:1019EC005A68BB69DB431F4913404B603B685B681B
:1019FC0003F48033002B06D01A4B1A681949BB69C3
:101A0C0013430B6006E0174B1A68BB69DB4315499F
:101A1C0013400B607B6A01337B623B681A687B6AFC
:101A2C0022FA03F3002B7FF4AFAE00BF00BF2C37BC
:101A3C00BD4680BC704700BF000032100000311062
:101A4C0000002210000021100000121000001110E4
:101A5C00001002400000014000080140000C014051
:101A6C00001001400004014080B485B000AF7860E4
:101A7C000B467B807B689A687B881340002B02D0D6
:101A8C000123FB7301E00023FB73FB7B1846143727
:101A9C00BD4680BC704780B483B000AF78600B4605
:101AAC007B8013467B707B78002B03D07A887B6815
:101ABC001A6103E07B881A047B681A6100BF0C373B
:101ACC00BD4680BC7047000080B586B000AF786022
:101ADC007B68002B01D101236CE27B681B6803F04F
:101AEC000103002B00F08780924B5B6803F00C0322
:101AFC00042B0CD08F4B5B6803F00C03082B12D11A
:101B0C008C4B5B6803F48033B3F5803F0BD1894B6E
:101B1C001B6803F40033002B6CD07B685B68002BD4
:101B2C0068D1012346E27B685B68B3F5803F06D140
:101B3C00804B1B687F4A43F4803313602EE07B6834
:101B4C005B68002B0CD17B4B1B687A4A23F48033E7
:101B5C001360784B1B68774A23F4802313601DE0D5
:101B6C007B685B68B3F5A02F0CD1724B1B68714A74
:101B7C0043F4802313606F4B1B686E4A43F480332D
:101B8C0013600BE06B4B1B686A4A23F480331360C1
:101B9C00684B1B68674A23F4802313607B685B687F
:101BAC00002B13D0FFF7CEFC386108E0FFF7CAFC1E
:101BBC0002463B69D31A642B01D90323FAE15D4B2E
:101BCC001B6803F40033002BF0D014E0FFF7BAFCD1
:101BDC00386108E0FFF7B6FC02463B69D31A642B68
:101BEC0001D90323E6E1534B1B6803F40033002BAC
:101BFC00F0D100E000BF7B681B6803F00203002BF0
:101C0C0063D04C4B5B6803F00C03002B0BD0494B9F
:101C1C005B6803F00C03082B1CD1464B5B6803F488
:101C2C008033002B16D1434B1B6803F00203002BAF
:101C3C0005D07B681B69012B01D00123BAE13D4B18
:101C4C001B6823F0F8027B685B69DB00394913439E
:101C5C000B603AE07B681B69002B20D0364B0122CD
:101C6C001A60FFF76FFC386108E0FFF76BFC024667
:101C7C003B69D31A022B01D903239BE12D4B1B6823
:101C8C0003F00203002BF0D02A4B1B6823F0F80260
:101C9C007B685B69DB00274913430B6015E0264B1F
:101CAC0000221A60FFF74EFC386108E0FFF74AFC8F
:101CBC0002463B69D31A022B01D903237AE11D4B4F
:101CCC001B6803F00203002BF0D17B681B6803F048
:101CDC000803002B3AD07B689B69002B19D0174B5B
:101CEC0001221A60FFF72EFC386108E0FFF72AFC8E
:101CFC0002463B69D31A022B01D903235AE10D4B3F
:101D0C005B6A03F00203002BF0D0012000F09AFA7A
:101D1C001CE00A4B00221A60FFF714FC38610FE03C
:101D2C00FFF710FC02463B69D31A022B08D9032398
:101D3C0040E100BF001002400000424280044242D9
:101D4C009E4B5B6A03F00203002BE9D17B681B6896
:101D5C0003F00403002B00F0A6800023FB75974BC7
:101D6C00DB6903F08053002B0DD1944BDB69934A54
:101D7C0043F08053D361914BDB6903F08053BB601C
:101D8C00BB680123FB758E4B1B6803F48073002B1F
:101D9C0018D18B4B1B688A4A43F480731360FFF78E
:101DAC00D1FB386108E0FFF7CDFB02463B69D31A43
:101DBC00642B01D90323FDE0814B1B6803F4807372
:101DCC00002BF0D07B68DB68012B06D17B4B1B6AA8
:101DDC007A4A43F0010313622DE07B68DB68002B29
:101DEC000CD1764B1B6A754A23F001031362734BBB
:101DFC001B6A724A23F0040313621CE07B68DB68E5
:101E0C00052B0CD16D4B1B6A6C4A43F00403136217
:101E1C006A4B1B6A694A43F0010313620BE0674B80
:101E2C001B6A664A23F001031362644B1B6A634A04
:101E3C0023F0040313627B68DB68002B15D0FFF7DB
:101E4C0081FB38610AE0FFF77DFB02463B69D31A40
:101E5C0041F28832934201D90323ABE0574B1B6A02
:101E6C0003F00203002BEED014E0FFF76BFB38619C
:101E7C000AE0FFF767FB02463B69D31A41F288324E
:101E8C00934201D9032395E04C4B1B6A03F00203E8
:101E9C00002BEED1FB7D012B05D1484BDB69474A6A
:101EAC0023F08053D3617B68DB69002B00F08180C9
:101EBC00424B5B6803F00C03082B61D07B68DB6939
:101ECC00022B46D13F4B00221A60FFF73BFB3861D7
:101EDC0008E0FFF737FB02463B69D31A022B01D906
:101EEC00032367E0354B1B6803F00073002BF0D124
:101EFC007B681B6AB3F5803F08D1304B5B6823F4D9
:101F0C0000327B689B682D4913434B602B4B5B68FD
:101F1C0023F474127B68196A7B685B6A0B4327494C
:101F2C0013434B60274B01221A60FFF70BFB386100
:101F3C0008E0FFF707FB02463B69D31A022B01D9D5
:101F4C00032337E01D4B1B6803F00073002BF0D00C
:101F5C002FE01C4B00221A60FFF7F4FA386108E0FE
:101F6C00FFF7F0FA02463B69D31A022B01D903237F
:101F7C0020E0124B1B6803F00073002BF0D118E02B
:101F8C007B68DB69012B01D1012313E00B4B5B68F0
:101F9C00FB60FB6803F480327B681B6A9A4206D1B3
:101FAC00FB6803F470127B685B6A9A4201D00123D0
:101FBC0000E0002318461837BD4680BD00100240D3
:101FCC00007000406000424280B584B000AF786081
:101FDC0039607B68002B01D10123D0E06A4B1B6870
:101FEC0003F007033A689A4210D9674B1B6823F039
:101FFC00070265493B6813430B60634B1B6803F096
:10200C0007033A689A4201D00123B8E07B681B6849
:10201C0003F00203002B20D07B681B6803F0040341
:10202C00002B05D0594B5B68584A43F4E06353606E
:10203C007B681B6803F00803002B05D0534B5B68CF
:10204C00524A43F460535360504B5B6823F0F002E8
:10205C007B689B684D4913434B607B681B6803F09E
:10206C000103002B40D07B685B68012B07D1474BE9
:10207C001B6803F40033002B15D101237FE07B6830
:10208C005B68022B07D1414B1B6803F00073002BDC
:10209C0009D1012373E03D4B1B6803F00203002BB5
:1020AC0001D101236BE0394B5B6823F003027B68A1
:1020BC005B68364913434B60FFF744FAF8600AE05B
:1020CC00FFF740FA0246FB68D31A41F2883293427A
:1020DC0001D9032353E02D4B5B6803F00C027B68A2
:1020EC005B689B009A42EBD1274B1B6803F00703FC
:1020FC003A689A4210D2244B1B6823F007022249FB
:10210C003B6813430B60204B1B6803F007033A68D2
:10211C009A4201D0012332E07B681B6803F0040370
:10212C00002B08D0194B5B6823F4E0627B68DB68FA
:10213C00164913434B607B681B6803F00803002BA4
:10214C0009D0124B5B6823F460527B681B69DB007F
:10215C000E4913434B6000F021F802460B4B5B68B1
:10216C001B0903F00F030A49CB5C22FA03F3094A5B
:10217C001360094B1B681846FFF7A2F90023184699
:10218C001037BD4680BD00BF002002400010024049
:10219C00B42A0008640000206800002080B487B0D6
:1021AC0000AF0023FB600023BB6000237B61002396
:1021BC007B6000233B611E4B5B68FB60FB6803F09C
:1021CC000C03042B02D0082B03D027E0194B3B61E6
:1021DC0027E0FB689B0C03F00F03174AD35C7B6072
:1021EC00FB6803F48033002B10D0114B5B685B0C45
:1021FC0003F00103114AD35CBB607B680D4A02FB00
:10220C0003F2BB68B2FBF3F37B6104E07B680C4A1E
:10221C0002FB03F37B617B693B6102E0054B3B6195
:10222C0000BF3B6918461C37BD4680BC704700BFD9
:10223C000010024000127A00C42A0008D42A0008B8
:10224C0000093D0080B485B000AF78600A4B1B6874
:10225C000A4AA2FB03235B0A7A6802FB03F3FB60C6
:10226C0000BFFB685A1EFA60002BF9D100BF00BFFB
:10227C001437BD4680BC704764000020D34D6210FB
:10228C0080B582B000AF78607B68002B01D1012350
:10229C0041E07B6893F83D30DBB2002B06D17B68C4
:1022AC00002283F83C207868FFF772F87B680222E2
:1022BC0083F83D207B681A687B6804331946104606
:1022CC0000F056FA7B68012283F846207B680122D5
:1022DC0083F83E207B68012283F83F207B68012233
:1022EC0083F840207B68012283F841207B6801221F
:1022FC0083F842207B68012283F843207B6801220B
:10230C0083F844207B68012283F845207B680122F6
:10231C0083F83D20002318460837BD4680BD0000D9
:10232C0080B485B000AF78607B6893F83D30DBB249
:10233C00012B01D0012335E07B68022283F83D207C
:10234C007B681B68DA687B681B6842F00102DA6004
:10235C007B681B68164A934209D07B681B68B3F1F3
:10236C00804F04D07B681B68124A934211D17B6862
:10237C001B689B6803F00703FB60FB68062B10D0FF
:10238C007B681B681A687B681B6842F001021A6044
:10239C0007E07B681B681A687B681B6842F00102C7
:1023AC001A60002318461437BD4680BC704700BF26
:1023BC00002C01400004004080B584B000AF786070
:1023CC007B681B68DB68FB607B681B681B69BB60F8
:1023DC00BB6803F00203002B20D0FB6803F0020360
:1023EC00002B1BD07B681B686FF002021A617B68A4
:1023FC0001221A777B681B689B6903F00303002B8F
:10240C0003D0786800F098F905E0786800F08BF953
:10241C00786800F09AF97B6800221A77BB6803F0A1
:10242C000403002B20D0FB6803F00403002B1BD00B
:10243C007B681B686FF004021A617B6802221A77B2
:10244C007B681B689B6903F44073002B03D078688E
:10245C0000F072F905E0786800F065F9786800F032
:10246C0074F97B6800221A77BB6803F00803002B11
:10247C0020D0FB6803F00803002B1BD07B681B6883
:10248C006FF008021A617B6804221A777B681B685C
:10249C00DB6903F00303002B03D0786800F04CF9E0
:1024AC0005E0786800F03FF9786800F04EF97B6839
:1024BC0000221A77BB6803F01003002B20D0FB68B6
:1024CC0003F01003002B1BD07B681B686FF010020D
:1024DC001A617B6808221A777B681B68DB6903F436
:1024EC004073002B03D0786800F026F905E078687B
:1024FC0000F019F9786800F028F97B6800221A7747
:10250C00BB6803F00103002B0CD0FB6803F0010344
:10251C00002B07D07B681B686FF001021A6178688A
:10252C00FEF7F2FEBB6803F08003002B0CD0FB68B7
:10253C0003F08003002B07D07B681B686FF08002D0
:10254C001A61786800F06FFABB6803F04003002B47
:10255C000CD0FB6803F04003002B07D07B681B6892
:10256C006FF040021A61786800F0F8F8BB6803F06D
:10257C002003002B0CD0FB6803F02003002B07D0AA
:10258C007B681B686FF020021A61786800F042FAD1
:10259C0000BF1037BD4680BD80B584B000AF7860F9
:1025AC0039600023FB737B6893F83C30012B01D11D
:1025BC000223B4E07B68012283F83C207B68022272
:1025CC0083F83D207B681B689B68BB60BB6823F06D
:1025DC007703BB60BB6823F47F43BB607B681B68DD
:1025EC00BA689A603B681B68B3F5005F3ED0B3F5E0
:1025FC00005F00F28780B3F5805F00F08680B3F552
:10260C00805F7FD8702B1AD0702B7BD8602B50D06A
:10261C00602B77D8502B3CD0502B73D8402B58D0F4
:10262C00402B6FD8302B64D0302B6BD8202B60D044
:10263C00202B67D8002B5CD0102B5AD062E07B6823
:10264C0018683B6899683B685A683B68DB6800F01F
:10265C006AF97B681B689B68BB60BB6843F07703B7
:10266C00BB607B681B68BA689A604FE07B6818682F
:10267C003B6899683B685A683B68DB6800F053F923
:10268C007B681B689A687B681B6842F480429A607E
:10269C003CE07B6818683B6859683B68DB681A4605
:1026AC0000F0CAF87B681B685021184600F021F92D
:1026BC002CE07B6818683B6859683B68DB681A46F5
:1026CC0000F0E8F87B681B686021184600F011F9EF
:1026DC001CE07B6818683B6859683B68DB681A46E5
:1026EC0000F0AAF87B681B684021184600F001F93D
:1026FC000CE07B681A683B681B681946104600F0B2
:10270C00F8F803E00123FB7300E000BF7B680122B3
:10271C0083F83D207B68002283F83C20FB7B184625
:10272C001037BD4680BD80B483B000AF786000BF69
:10273C000C37BD4680BC704780B483B000AF786066
:10274C0000BF0C37BD4680BC704780B483B000AF6F
:10275C00786000BF0C37BD4680BC704780B483B036
:10276C0000AF786000BF0C37BD4680BC70470000DE
:10277C0080B485B000AF786039607B681B68FB6003
:10278C007B682B4A934207D07B68B3F1804F03D010
:10279C007B68284A934208D1FB6823F07003FB60E6
:1027AC003B685B68FA681343FB607B68204A934282
:1027BC0007D07B68B3F1804F03D07B681D4A9342EE
:1027CC0008D1FB6823F44073FB603B68DB68FA6854
:1027DC001343FB60FB6823F080023B685B69134387
:1027EC00FB607B68FA681A603B689A687B68DA62FF
:1027FC003B681A687B689A627B680D4A934203D1E6
:10280C003B681A697B681A637B6801225A617B6892
:10281C001B6903F00103002B05D07B681B6923F0B7
:10282C0001027B681A6100BF1437BD4680BC70473B
:10283C00002C01400004004080B487B000AFF86069
:10284C00B9607A60FB681B6A7B61FB681B6A23F0CA
:10285C000102FB681A62FB689B693B613B6923F0D0
:10286C00F0033B617B681B013A6913433B617B6955
:10287C0023F00A037B617A69BB6813437B61FB68B5
:10288C003A699A61FB687A691A6200BF1C37BD46C7
:10289C0080BC704780B487B000AFF860B9607A60D4
:1028AC00FB681B6A7B61FB681B6A23F01002FB68E8
:1028BC001A62FB689B693B613B6923F470433B6183
:1028CC007B681B033A6913433B617B6923F0A003CC
:1028DC007B61BB681B017A6913437B61FB683A69B6
:1028EC009A61FB687A691A6200BF1C37BD4680BCCE
:1028FC00704780B485B000AF786039607B689B68A6
:10290C00FB60FB6823F07003FB603A68FB681343C1
:10291C0043F00703FB607B68FA689A6000BF1437CA
:10292C00BD4680BC704780B487B000AFF860B9601A
:10293C007A603B60FB689B687B617B6923F47F4317
:10294C007B613B681A027B681A43BB6813437A6944
:10295C0013437B61FB687A699A6000BF1C37BD46E4
:10296C0080BC704780B485B000AF786039607B68FC
:10297C0093F83C30012B01D1022341E07B6801220A
:10298C0083F83C207B68022283F83D207B681B681F
:10299C005B68FB607B681B689B68BB60FB6823F013
:1029AC007003FB603B681B68FA681343FB607B6831
:1029BC001B68FA685A607B681B68144A934209D0FA
:1029CC007B681B68B3F1804F04D07B681B68104A8E
:1029DC0093420CD1BB6823F08003BB603B685B68FF
:1029EC00BA681343BB607B681B68BA689A607B68E3
:1029FC00012283F83D207B68002283F83C200023D1
:102A0C0018461437BD4680BC704700BF002C0140EF
:102A1C000004004080B483B000AF786000BF0C3776
:102A2C00BD4680BC704780B483B000AF786000BFF7
:102A3C000C37BD4680BC704770B500260C4D0D4C54
:102A4C00641BA410A64209D100F022F800260A4DFE
:102A5C000A4C641BA410A64205D170BD55F8043B6A
:102A6C0098470136EEE755F8043B98470136F2E7F4
:102A7C00D82A0008D82A0008D82A0008DC2A00081E
:102A8C0003460244934200D1704703F8011BF9E757
:102A9C00F8B500BFF8BC08BC9E467047F8B500BF3F
:082AAC00F8BC08BC9E4670470F
:102AB40000000000000000000102030406070809EA
:102AC40002030405060708090A0B0C0D0E0F10106B
:042AD40001020000FB
:042AD80031010008C0
:042ADC000D010008E0
:102AE00001000000010000000100000001000000E2
:102AF00001000000010000000100000001000000D2
:102B000001000000010000000100000001000000C1
:102B1000C8000000C8000000C8000000010000005C
:102B2000090000000900000003000000030000008D
:102B3000060000000600000002000000090000007E
:102B40000600000000127A001000000001000000E2
:040000050800145586
:00000001FF
